:020000040000FA
:100000000C945D000C9485000C9485000C94850084
:100010000C9485000C9485000C9485000C9485004C
:100020000C9485000C9485000C9485000C9485003C
:100030000C9485000C9485000C9485000C9485002C
:100040000C9419030C9485000C9485000C94850085
:100050000C9485000C9485000C9485000C9485000C
:100060000C9485000C94850000000008000201003B
:100070000003040700000000000000000000000072
:10008000250028002B0000000000240027002A0083
:10009000040404040404040402020202020203032E
:1000A0000303030301020408102040800102040836
:1000B0001020010204081020310411241FBECFEFCC
:1000C000D8E0DEBFCDBF11E0A0E0B1E0E2EFF8E0A4
:1000D00002C005900D92A034B107D9F721E0A0E449
:1000E000B1E001C01D92A336B207E1F710E0CDE503
:1000F000D0E004C02197FE010E947104CC35D107E5
:10010000C9F70E9463030C9477040C94000090E0FC
:10011000FC01EC55FF4F249180579F4FFC018491C7
:10012000882399F090E0880F991FFC01EA57FF4F50
:10013000A591B491FC01E458FF4F859194918FB73C
:10014000F894EC91E22BEC938FBF089590E0FC01C2
:10015000E859FF4F2491FC01EC55FF4F3491FC010D
:10016000E057FF4FE491EE23C9F0222339F023300A
:1001700001F1A8F4213019F1223029F1F0E0EE0F5D
:10018000FF1FE458FF4FA591B4918FB7F894EC91FD
:10019000611126C030953E233C938FBF08952730D0
:1001A000A9F02830C9F0243049F7809180008F7D74
:1001B00003C0809180008F7780938000DFCF84B56B
:1001C0008F7784BDDBCF84B58F7DFBCF8091B0006E
:1001D0008F778093B000D2CF8091B0008F7DF9CF20
:1001E0003E2BDACF3FB7F8948091470190914801B8
:1001F000A0914901B0914A0126B5A89B05C02F3FA7
:1002000019F00196A11DB11D3FBFBA2FA92F982F3C
:100210008827BC01CD01620F711D811D911D42E037
:10022000660F771F881F991F4A95D1F708958F92FF
:100230009F92AF92BF92CF92DF92EF92FF924B01CB
:100240005C010E94F2006B017C010E94F2006C19BB
:100250007D098E099F09683E734081059105A8F3C9
:1002600021E0821A9108A108B10888EEC80E83E047
:10027000D81EE11CF11C81149104A104B10429F7DA
:10028000FF90EF90DF90CF90BF90AF909F908F90B6
:100290000895AF92BF92CF92DF92EF92FF920F93A9
:1002A0001F93CF93DF936C017B018B01040F151F0C
:1002B000EB015E01AE18BF08C017D10759F0699174
:1002C000D601ED91FC910190F081E02DC6010995D8
:1002D000892B79F7C501DF91CF911F910F91FF9085
:1002E000EF90DF90CF90BF90AF900895089590E089
:1002F00080E008958F929F92AF92BF920F931F93C9
:10030000CF93DF93CDB7DEB7A1970FB6F894DEBFDA
:100310000FBECDBF19A2423008F44AE08E010F5D36
:100320001F4F842E912CB12CA12CA50194010E9469
:100330004F04E62FB901CA01EA3044F5E05DD80167
:10034000EE938D01232B242B252B79F790E080E071
:10035000109769F0FD0101900020E9F73197AF0196
:100360004A1B5B0BBD018BE491E00E944901A19601
:100370000FB6F894DEBF0FBECDBFDF91CF911F91B6
:100380000F91BF90AF909F908F900895E95CD7CF69
:10039000FC0101900020E9F73197AF01481B590B90
:1003A000BC018BE491E00C944901CF93DF93EC0105
:1003B00060E08E810E94A60061E08E810E94A6000E
:1003C00060E08E810E94A6008BE891E00197F1F732
:1003D000DF91CF910895CF92DF92EF92FF920F932A
:1003E0001F93CF93DF936C017C0187E0E80EF11C33
:1003F000D0E0C0E0062F10E0B8010C2E02C07595C9
:1004000067950A94E2F76170F70181917F010E947C
:10041000A6002196C430D10579F7C601DF91CF91AE
:100420001F910F91FF90EF90DF90CF900C94D5012A
:10043000CF92DF92EF92FF920F931F93CF93DF93B0
:10044000EC01F62E642F8C810E94A6008D818F3FD7
:1004500019F060E00E94A6000F2D10E08F8584FF48
:1004600025C06E0187E0C80ED11CF12CE12CB8012B
:100470000E2C02C0759567950A94E2F76170F6013B
:1004800081916F010E94A600FFEFEF1AFF0A88E03A
:10049000E816F10461F7CE01DF91CF911F910F9122
:1004A000FF90EF90DF90CF900C94D501B80184E0DD
:1004B000759567958A95E1F7CE010E94EB016F2D46
:1004C000CE01DF91CF911F910F91FF90EF90DF90C0
:1004D000CF900C94EB0140E0682F8BE491E00C94FA
:1004E0001802CF93DF93823029F490915A019860DB
:1004F00090935A0180935E0110925F0180E4809393
:10050000600180E18093610180E5809362018091C8
:100510004F010E948700809150018F3F11F00E948F
:100520008700809151010E948700CBE4D1E09E01B9
:100530002B54314080915A0184FD0AC084E090E040
:100540002196281739073CF48E810E948700EFCF4F
:1005500088E090E0F5CF8BE39DE00197F1F760E054
:1005600080914F010E94A60060E0809151010E949D
:10057000A600809150018F3F19F060E00E94A60014
:1005800080915A0184FD39C063E08BE491E00E94C0
:10059000EB01CBE4D6E4CE010197F1F763E08BE405
:1005A00091E00E94EB012197F1F763E08BE491E089
:1005B0000E94EB0183E592E00197F1F762E08BE4A2
:1005C00091E00E94EB0180915A0180620E946B02CF
:1005D00084E080935B018CE00E946B0281E00E94CA
:1005E0006B028BE39FE10197F1F782E080935C015E
:1005F00086E0DF91CF910C946B0280620E946B02C7
:100600008BE496E40197F1F780915A0180620E9491
:100610006B0283E592E00197F1F780915A018062C5
:100620000E946B02D0CF41E00E94180281E090E06E
:1006300008951F920F920FB60F9211242F933F939C
:100640008F939F93AF93BF93809143019091440107
:10065000A0914501B09146013091420123E0230F62
:100660002D3758F50196A11DB11D209342018093AD
:10067000430190934401A0934501B09346018091BA
:10068000470190914801A0914901B0914A0101961A
:10069000A11DB11D8093470190934801A09349018A
:1006A000B0934A01BF91AF919F918F913F912F914C
:1006B0000F900FBE0F901F90189526E8230F0296FB
:1006C000A11DB11DD2CF789484B5826084BD84B55C
:1006D000816084BD85B5826085BD85B5816085BD3D
:1006E00080916E00816080936E00109281008091F5
:1006F000810082608093810080918100816080937D
:100700008100809180008160809380008091B100A1
:1007100084608093B1008091B00081608093B000CC
:1007200080917A00846080937A0080917A00826060
:1007300080937A0080917A00816080937A00809122
:100740007A00806880937A001092C10088E00E944D
:10075000870082E00E9471028CE091E00E94C80153
:1007600060ED77E080E090E00E94170181E00E9458
:100770006B028BE39FE10197F1F710E4C0E0D0E05A
:1007800010937C0080917A00806480937A0080913D
:100790007A0086FDFCCF809178009091790090934B
:1007A000410180934001E1E080915E018111E0E030
:1007B000E195F0E0E55BFE4F848980680E946B0262
:1007C0008CE191E00E94C801C0904001D0904101AD
:1007D0000D2C000CEE08FF084AE0C701B601F7FE39
:1007E0000EC041E06DE28BE491E00E9418026627A2
:1007F0007727CB016C197D098E099F094AE00E9479
:100800007A01E0915E01E23018F5E150F0E0E55B3D
:10081000FE4F848980680E946B0280914001909114
:100820004101843F9140B4F461E088E00E94A60059
:1008300087E291E00E94C80168EE73E080E090E0FA
:100840000E941701209709F49BCF0E94000098CFC7
:10085000E1E0DCCF60E088E00E94A60083E391E065
:10086000E9CFEBE4F1E01382128284E091E091831E
:1008700080838CE084838FEF85838BE0868385E0A3
:10088000878384E0808783E0818782E08287138684
:10089000148615861686178681E00C947102A1E2F3
:1008A0001A2EAA1BBB1BFD010DC0AA1FBB1FEE1FEA
:1008B000FF1FA217B307E407F50720F0A21BB30B35
:1008C000E40BF50B661F771F881F991F1A9469F7B1
:1008D00060957095809590959B01AC01BD01CF010D
:1008E0000895EE0FFF1F0590F491E02D0994F89400
:1008F000FFCF000000001303490177017601536D1B
:1009000061727420466C6F776572706F74004D6F02
:100910006973747572653A2000536F696C2069734E
:100920002044525900536F696C2069732057455415
:020930002000A5
:107E0000112484B714BE81FFF0D085E080938100F7
:107E100082E08093C00088E18093C10086E0809377
:107E2000C20080E18093C4008EE0C9D0259A86E02C
:107E300020E33CEF91E0309385002093840096BBD3
:107E4000B09BFECF1D9AA8958150A9F7CC24DD24C4
:107E500088248394B5E0AB2EA1E19A2EF3E0BF2EE7
:107E6000A2D0813461F49FD0082FAFD0023811F036
:107E7000013811F484E001C083E08DD089C08234E0
:107E800011F484E103C0853419F485E0A6D080C0E4
:107E9000853579F488D0E82EFF2485D0082F10E0AE
:107EA000102F00270E291F29000F111F8ED06801E7
:107EB0006FC0863521F484E090D080E0DECF843638
:107EC00009F040C070D06FD0082F6DD080E0C81688
:107ED00080E7D80618F4F601B7BEE895C0E0D1E017
:107EE00062D089930C17E1F7F0E0CF16F0E7DF06D8
:107EF00018F0F601B7BEE89568D007B600FCFDCFD4
:107F0000A601A0E0B1E02C9130E011968C91119780
:107F100090E0982F8827822B932B1296FA010C0160
:107F200087BEE89511244E5F5F4FF1E0A038BF0790
:107F300051F7F601A7BEE89507B600FCFDCF97BE46
:107F4000E89526C08437B1F42ED02DD0F82E2BD052
:107F50003CD0F601EF2C8F010F5F1F4F84911BD097
:107F6000EA94F801C1F70894C11CD11CFA94CF0C13
:107F7000D11C0EC0853739F428D08EE10CD085E9AC
:107F80000AD08FE07ACF813511F488E018D01DD067
:107F900080E101D065CF982F8091C00085FFFCCF94
:107FA0009093C60008958091C00087FFFCCF809118
:107FB000C00084FD01C0A8958091C6000895E0E648
:107FC000F0E098E1908380830895EDDF803219F02E
:107FD00088E0F5DFFFCF84E1DECF1F93182FE3DFCA
:107FE0001150E9F7F2DF1F91089580E0E8DFEE27F6
:047FF000FF270994CA
:027FFE00040479
:00000001FF
